{
  "contractName": "Bets",
  "abi": [
    {
      "constant": true,
      "inputs": [
        {
          "name": "",
          "type": "uint256"
        }
      ],
      "name": "bets",
      "outputs": [
        {
          "name": "total",
          "type": "uint256"
        }
      ],
      "payable": false,
      "stateMutability": "view",
      "type": "function"
    },
    {
      "constant": true,
      "inputs": [
        {
          "name": "",
          "type": "bytes32"
        }
      ],
      "name": "queryIds",
      "outputs": [
        {
          "name": "",
          "type": "uint256"
        }
      ],
      "payable": false,
      "stateMutability": "view",
      "type": "function"
    },
    {
      "constant": false,
      "inputs": [],
      "name": "destroy",
      "outputs": [],
      "payable": false,
      "stateMutability": "nonpayable",
      "type": "function"
    },
    {
      "constant": true,
      "inputs": [],
      "name": "owner",
      "outputs": [
        {
          "name": "",
          "type": "address"
        }
      ],
      "payable": false,
      "stateMutability": "view",
      "type": "function"
    },
    {
      "constant": true,
      "inputs": [],
      "name": "OAR",
      "outputs": [
        {
          "name": "",
          "type": "address"
        }
      ],
      "payable": false,
      "stateMutability": "view",
      "type": "function"
    },
    {
      "constant": false,
      "inputs": [
        {
          "name": "newOwner",
          "type": "address"
        }
      ],
      "name": "transferOwnership",
      "outputs": [],
      "payable": false,
      "stateMutability": "nonpayable",
      "type": "function"
    },
    {
      "constant": false,
      "inputs": [
        {
          "name": "_recipient",
          "type": "address"
        }
      ],
      "name": "destroyAndSend",
      "outputs": [],
      "payable": false,
      "stateMutability": "nonpayable",
      "type": "function"
    },
    {
      "payable": true,
      "stateMutability": "payable",
      "type": "fallback"
    },
    {
      "anonymous": false,
      "inputs": [
        {
          "indexed": false,
          "name": "queryId",
          "type": "bytes32"
        }
      ],
      "name": "LogBetCallback",
      "type": "event"
    },
    {
      "anonymous": false,
      "inputs": [
        {
          "indexed": false,
          "name": "queryId",
          "type": "bytes32"
        }
      ],
      "name": "LogNewBet",
      "type": "event"
    },
    {
      "anonymous": false,
      "inputs": [
        {
          "indexed": false,
          "name": "title",
          "type": "bytes32"
        },
        {
          "indexed": false,
          "name": "",
          "type": "uint256"
        }
      ],
      "name": "LogUint",
      "type": "event"
    },
    {
      "anonymous": false,
      "inputs": [
        {
          "indexed": true,
          "name": "previousOwner",
          "type": "address"
        },
        {
          "indexed": true,
          "name": "newOwner",
          "type": "address"
        }
      ],
      "name": "OwnershipTransferred",
      "type": "event"
    },
    {
      "constant": false,
      "inputs": [
        {
          "name": "queryId",
          "type": "bytes32"
        },
        {
          "name": "response",
          "type": "string"
        }
      ],
      "name": "__callback",
      "outputs": [],
      "payable": false,
      "stateMutability": "nonpayable",
      "type": "function"
    },
    {
      "constant": false,
      "inputs": [
        {
          "name": "myid",
          "type": "bytes32"
        },
        {
          "name": "result",
          "type": "string"
        },
        {
          "name": "proof",
          "type": "bytes"
        }
      ],
      "name": "__callback",
      "outputs": [],
      "payable": false,
      "stateMutability": "nonpayable",
      "type": "function"
    },
    {
      "constant": false,
      "inputs": [
        {
          "name": "temperature",
          "type": "string"
        },
        {
          "name": "timestamp",
          "type": "uint256"
        }
      ],
      "name": "addBet",
      "outputs": [],
      "payable": true,
      "stateMutability": "payable",
      "type": "function"
    }
  ],
  "bytecode": "0x6080604052736f485c8bf6fc43ea212e93bbf8ce046c7f1cb475600960006101000a81548173ffffffffffffffffffffffffffffffffffffffff021916908373ffffffffffffffffffffffffffffffffffffffff16021790555033600560006101000a81548173ffffffffffffffffffffffffffffffffffffffff021916908373ffffffffffffffffffffffffffffffffffffffff160217905550612137806100a96000396000f3006080604052600436106100a4576000357c0100000000000000000000000000000000000000000000000000000000900463ffffffff16806322af00fa146100a657806327dc297e146100e757806331460e3d1461015e57806338bbfa50146101a357806383197ef0146102605780638da5cb5b146102775780639e1c9c9f146102ce578063c90c589a14610334578063f2fde38b1461038b578063f5074f41146103ce575b005b3480156100b257600080fd5b506100d160048036038101908080359060200190929190505050610411565b6040518082815260200191505060405180910390f35b3480156100f357600080fd5b5061015c6004803603810190808035600019169060200190929190803590602001908201803590602001908080601f016020809104026020016040519081016040528093929190818152602001838380828437820191505050505050919291929050505061042f565b005b34801561016a57600080fd5b5061018d600480360381019080803560001916906020019092919050505061093d565b6040518082815260200191505060405180910390f35b3480156101af57600080fd5b5061025e6004803603810190808035600019169060200190929190803590602001908201803590602001908080601f0160208091040260200160405190810160405280939291908181526020018383808284378201915050505050509192919290803590602001908201803590602001908080601f0160208091040260200160405190810160405280939291908181526020018383808284378201915050505050509192919290505050610955565b005b34801561026c57600080fd5b5061027561095a565b005b34801561028357600080fd5b5061028c6109f1565b604051808273ffffffffffffffffffffffffffffffffffffffff1673ffffffffffffffffffffffffffffffffffffffff16815260200191505060405180910390f35b610332600480360381019080803590602001908201803590602001908080601f016020809104026020016040519081016040528093929190818152602001838380828437820191505050505050919291929080359060200190929190505050610a17565b005b34801561034057600080fd5b50610349610eb7565b604051808273ffffffffffffffffffffffffffffffffffffffff1673ffffffffffffffffffffffffffffffffffffffff16815260200191505060405180910390f35b34801561039757600080fd5b506103cc600480360381019080803573ffffffffffffffffffffffffffffffffffffffff169060200190929190505050610edd565b005b3480156103da57600080fd5b5061040f600480360381019080803573ffffffffffffffffffffffffffffffffffffffff169060200190929190505050611035565b005b60066020528060005260406000206000915090508060000154905081565b6000806000606060008060006104436110aa565b73ffffffffffffffffffffffffffffffffffffffff163373ffffffffffffffffffffffffffffffffffffffff1614151561047c57600080fd5b600760008a6000191660001916815260200190815260200160002054965060006040519080825280602002602001820160405280156104ca5781602001602082028038833980820191505090505b50600890805190602001906104e0929190611ef5565b50600095505b60066000888152602001908152602001600020600201805490508610156106e457600660008881526020019081526020016000206002018681548110151561052a57fe5b9060005260206000200160009054906101000a900473ffffffffffffffffffffffffffffffffffffffff1694506006600088815260200190815260200160002060010160008673ffffffffffffffffffffffffffffffffffffffff1673ffffffffffffffffffffffffffffffffffffffff1681526020019081526020016000208054600181600116156101000203166002900480601f01602080910402602001604051908101604052809291908181526020018280546001816001161561010002031660029004801561063e5780601f106106135761010080835404028352916020019161063e565b820191906000526020600020905b81548152906001019060200180831161062157829003601f168201915b5050505050935061066861065185611408565b61065a8a611408565b61143690919063ffffffff16565b925082156106d75760088590806001815401808255809150509060018203906000526020600020016000909192909190916101000a81548173ffffffffffffffffffffffffffffffffffffffff021916908373ffffffffffffffffffffffffffffffffffffffff160217905550505b85806001019650506104e6565b600060088054905011156108f3577f4b30f46de0dbd71070888f5ec429fe7128dfbe8ee1ed10811ae415da99311313600660008981526020019081526020016000206000015460405180807f546f74616c00000000000000000000000000000000000000000000000000000081525060200182815260200191505060405180910390a17f4b30f46de0dbd71070888f5ec429fe7128dfbe8ee1ed10811ae415da9931131360088054905060405180807f57696e6e6572730000000000000000000000000000000000000000000000000081525060200182815260200191505060405180910390a160088054905060066000898152602001908152602001600020600001548115156107f157fe5b0491507f4b30f46de0dbd71070888f5ec429fe7128dfbe8ee1ed10811ae415da993113138260405180807f5072697a6500000000000000000000000000000000000000000000000000000081525060200182815260200191505060405180910390a1600090505b6008805490508110156108f25760088181548110151561087457fe5b9060005260206000200160009054906101000a900473ffffffffffffffffffffffffffffffffffffffff1673ffffffffffffffffffffffffffffffffffffffff166108fc839081150290604051600060405180830381858888f193505050501580156108e4573d6000803e3d6000fd5b508080600101915050610858565b5b7f31b18346a03ee8ac6932fb40dff675d319e94adb1039ddc2cc90b8f5da5b63b48960405180826000191660001916815260200191505060405180910390a1505050505050505050565b60076020528060005260406000206000915090505481565b505050565b600560009054906101000a900473ffffffffffffffffffffffffffffffffffffffff1673ffffffffffffffffffffffffffffffffffffffff163373ffffffffffffffffffffffffffffffffffffffff161415156109b657600080fd5b600560009054906101000a900473ffffffffffffffffffffffffffffffffffffffff1673ffffffffffffffffffffffffffffffffffffffff16ff5b600560009054906101000a900473ffffffffffffffffffffffffffffffffffffffff1681565b6000806060600084620151804201101515610a3157600080fd5b600060066000878152602001908152602001600020600001541115610c2457346006600087815260200190815260200160002060000160008282540192505081905550856006600087815260200190815260200160002060010160003373ffffffffffffffffffffffffffffffffffffffff1673ffffffffffffffffffffffffffffffffffffffff1681526020019081526020016000209080519060200190610adb929190611f7f565b5060009350600092505b6006600086815260200190815260200160002060020180549050831015610b9d573373ffffffffffffffffffffffffffffffffffffffff166006600087815260200190815260200160002060020184815481101515610b4057fe5b9060005260206000200160009054906101000a900473ffffffffffffffffffffffffffffffffffffffff1673ffffffffffffffffffffffffffffffffffffffff161415610b905760019350610b9d565b8280600101935050610ae5565b831515610c1f57600660008681526020019081526020016000206002013390806001815401808255809150509060018203906000526020600020016000909192909190916101000a81548173ffffffffffffffffffffffffffffffffffffffff021916908373ffffffffffffffffffffffffffffffffffffffff160217905550505b610eaf565b60408051908101604052803481526020016000604051908082528060200260200182016040528015610c655781602001602082028038833980820191505090505b5081525060066000878152602001908152602001600020600082015181600001556020820151816002019080519060200190610ca2929190611fff565b50905050856006600087815260200190815260200160002060010160003373ffffffffffffffffffffffffffffffffffffffff1673ffffffffffffffffffffffffffffffffffffffff1681526020019081526020016000209080519060200190610d0d929190611f7f565b50600660008681526020019081526020016000206002013390806001815401808255809150509060018203906000526020600020016000909192909190916101000a81548173ffffffffffffffffffffffffffffffffffffffff021916908373ffffffffffffffffffffffffffffffffffffffff16021790555050608060405190810160405280605581526020017f6a736f6e2868747470733a2f2f7777772e6d657461776561746865722e636f6d81526020017f2f6170692f6c6f636174696f6e2f383334343633292e636f6e736f6c6964617481526020017f65645f776561746865722e302e7468655f74656d7000000000000000000000008152509150610e4d856040805190810160405280600381526020017f55524c00000000000000000000000000000000000000000000000000000000008152508461148e565b905084600760008360001916600019168152602001908152602001600020819055507f2ad742a83dd7365ed51463d9e9f3b35ae79568015d2f31051d8fe86d8564ae768160405180826000191660001916815260200191505060405180910390a15b505050505050565b600960009054906101000a900473ffffffffffffffffffffffffffffffffffffffff1681565b600560009054906101000a900473ffffffffffffffffffffffffffffffffffffffff1673ffffffffffffffffffffffffffffffffffffffff163373ffffffffffffffffffffffffffffffffffffffff16141515610f3957600080fd5b600073ffffffffffffffffffffffffffffffffffffffff168173ffffffffffffffffffffffffffffffffffffffff1614151515610f7557600080fd5b8073ffffffffffffffffffffffffffffffffffffffff16600560009054906101000a900473ffffffffffffffffffffffffffffffffffffffff1673ffffffffffffffffffffffffffffffffffffffff167f8be0079c531659141344cd1fd0a4f28419497f9722a3daafe3b4186f6b6457e060405160405180910390a380600560006101000a81548173ffffffffffffffffffffffffffffffffffffffff021916908373ffffffffffffffffffffffffffffffffffffffff16021790555050565b600560009054906101000a900473ffffffffffffffffffffffffffffffffffffffff1673ffffffffffffffffffffffffffffffffffffffff163373ffffffffffffffffffffffffffffffffffffffff1614151561109157600080fd5b8073ffffffffffffffffffffffffffffffffffffffff16ff5b6000806000809054906101000a900473ffffffffffffffffffffffffffffffffffffffff1673ffffffffffffffffffffffffffffffffffffffff16148061111a575060006111186000809054906101000a900473ffffffffffffffffffffffffffffffffffffffff16611a30565b145b1561112b576111296000611a3b565b505b6000809054906101000a900473ffffffffffffffffffffffffffffffffffffffff1673ffffffffffffffffffffffffffffffffffffffff166338cc48316040518163ffffffff167c0100000000000000000000000000000000000000000000000000000000028152600401602060405180830381600087803b1580156111b057600080fd5b505af11580156111c4573d6000803e3d6000fd5b505050506040513d60208110156111da57600080fd5b810190808051906020019092919050505073ffffffffffffffffffffffffffffffffffffffff16600160009054906101000a900473ffffffffffffffffffffffffffffffffffffffff1673ffffffffffffffffffffffffffffffffffffffff16141515611342576000809054906101000a900473ffffffffffffffffffffffffffffffffffffffff1673ffffffffffffffffffffffffffffffffffffffff166338cc48316040518163ffffffff167c0100000000000000000000000000000000000000000000000000000000028152600401602060405180830381600087803b1580156112c657600080fd5b505af11580156112da573d6000803e3d6000fd5b505050506040513d60208110156112f057600080fd5b8101908080519060200190929190505050600160006101000a81548173ffffffffffffffffffffffffffffffffffffffff021916908373ffffffffffffffffffffffffffffffffffffffff1602179055505b600160009054906101000a900473ffffffffffffffffffffffffffffffffffffffff1673ffffffffffffffffffffffffffffffffffffffff1663c281d19e6040518163ffffffff167c0100000000000000000000000000000000000000000000000000000000028152600401602060405180830381600087803b1580156113c857600080fd5b505af11580156113dc573d6000803e3d6000fd5b505050506040513d60208110156113f257600080fd5b8101908080519060200190929190505050905090565b611410612089565b600060208301905060408051908101604052808451815260200182815250915050919050565b6000808260000151846000015110156114525760009150611487565b82602001518460200151141561146b5760019150611487565b8251602085015160208501518281208383201493505050508091505b5092915050565b60008060008060009054906101000a900473ffffffffffffffffffffffffffffffffffffffff1673ffffffffffffffffffffffffffffffffffffffff161480611500575060006114fe6000809054906101000a900473ffffffffffffffffffffffffffffffffffffffff16611a30565b145b156115115761150f6000611a3b565b505b6000809054906101000a900473ffffffffffffffffffffffffffffffffffffffff1673ffffffffffffffffffffffffffffffffffffffff166338cc48316040518163ffffffff167c0100000000000000000000000000000000000000000000000000000000028152600401602060405180830381600087803b15801561159657600080fd5b505af11580156115aa573d6000803e3d6000fd5b505050506040513d60208110156115c057600080fd5b810190808051906020019092919050505073ffffffffffffffffffffffffffffffffffffffff16600160009054906101000a900473ffffffffffffffffffffffffffffffffffffffff1673ffffffffffffffffffffffffffffffffffffffff16141515611728576000809054906101000a900473ffffffffffffffffffffffffffffffffffffffff1673ffffffffffffffffffffffffffffffffffffffff166338cc48316040518163ffffffff167c0100000000000000000000000000000000000000000000000000000000028152600401602060405180830381600087803b1580156116ac57600080fd5b505af11580156116c0573d6000803e3d6000fd5b505050506040513d60208110156116d657600080fd5b8101908080519060200190929190505050600160006101000a81548173ffffffffffffffffffffffffffffffffffffffff021916908373ffffffffffffffffffffffffffffffffffffffff1602179055505b600160009054906101000a900473ffffffffffffffffffffffffffffffffffffffff1673ffffffffffffffffffffffffffffffffffffffff1663524f3889856040518263ffffffff167c01000000000000000000000000000000000000000000000000000000000281526004018080602001828103825283818151815260200191508051906020019080838360005b838110156117d25780820151818401526020810190506117b7565b50505050905090810190601f1680156117ff5780820380516001836020036101000a031916815260200191505b5092505050602060405180830381600087803b15801561181e57600080fd5b505af1158015611832573d6000803e3d6000fd5b505050506040513d602081101561184857600080fd5b8101908080519060200190929190505050905062030d403a02670de0b6b3a76400000181111561187e5760006001029150611a28565b600160009054906101000a900473ffffffffffffffffffffffffffffffffffffffff1673ffffffffffffffffffffffffffffffffffffffff1663adf59f99828787876040518563ffffffff167c0100000000000000000000000000000000000000000000000000000000028152600401808481526020018060200180602001838103835285818151815260200191508051906020019080838360005b8381101561193557808201518184015260208101905061191a565b50505050905090810190601f1680156119625780820380516001836020036101000a031916815260200191505b50838103825284818151815260200191508051906020019080838360005b8381101561199b578082015181840152602081019050611980565b50505050905090810190601f1680156119c85780820380516001836020036101000a031916815260200191505b50955050505050506020604051808303818588803b1580156119e957600080fd5b505af11580156119fd573d6000803e3d6000fd5b50505050506040513d6020811015611a1457600080fd5b810190808051906020019092919050505091505b509392505050565b6000813b9050919050565b6000611a45611a4c565b9050919050565b600080611a6c731d3b2638a7cc9f2cb3d298a3da7a90b67e5506ed611a30565b1115611b0d57731d3b2638a7cc9f2cb3d298a3da7a90b67e5506ed6000806101000a81548173ffffffffffffffffffffffffffffffffffffffff021916908373ffffffffffffffffffffffffffffffffffffffff160217905550611b046040805190810160405280600b81526020017f6574685f6d61696e6e6574000000000000000000000000000000000000000000815250611edb565b60019050611ed8565b6000611b2c73c03a2615d5efaf5f49f60b7bb6583eaec212fdf1611a30565b1115611bcd5773c03a2615d5efaf5f49f60b7bb6583eaec212fdf16000806101000a81548173ffffffffffffffffffffffffffffffffffffffff021916908373ffffffffffffffffffffffffffffffffffffffff160217905550611bc46040805190810160405280600c81526020017f6574685f726f707374656e330000000000000000000000000000000000000000815250611edb565b60019050611ed8565b6000611bec73b7a07bcf2ba2f2703b24c0691b5278999c59ac7e611a30565b1115611c8d5773b7a07bcf2ba2f2703b24c0691b5278999c59ac7e6000806101000a81548173ffffffffffffffffffffffffffffffffffffffff021916908373ffffffffffffffffffffffffffffffffffffffff160217905550611c846040805190810160405280600981526020017f6574685f6b6f76616e0000000000000000000000000000000000000000000000815250611edb565b60019050611ed8565b6000611cac73146500cfd35b22e4a392fe0adc06de1a1368ed48611a30565b1115611d4d5773146500cfd35b22e4a392fe0adc06de1a1368ed486000806101000a81548173ffffffffffffffffffffffffffffffffffffffff021916908373ffffffffffffffffffffffffffffffffffffffff160217905550611d446040805190810160405280600b81526020017f6574685f72696e6b656279000000000000000000000000000000000000000000815250611edb565b60019050611ed8565b6000611d6c736f485c8bf6fc43ea212e93bbf8ce046c7f1cb475611a30565b1115611dcf57736f485c8bf6fc43ea212e93bbf8ce046c7f1cb4756000806101000a81548173ffffffffffffffffffffffffffffffffffffffff021916908373ffffffffffffffffffffffffffffffffffffffff16021790555060019050611ed8565b6000611dee7320e12a1f859b3feae5fb2a0a32c18f5a65555bbf611a30565b1115611e51577320e12a1f859b3feae5fb2a0a32c18f5a65555bbf6000806101000a81548173ffffffffffffffffffffffffffffffffffffffff021916908373ffffffffffffffffffffffffffffffffffffffff16021790555060019050611ed8565b6000611e707351efaf4c8b3c9afbd5ab9f4bbc82784ab6ef8faa611a30565b1115611ed3577351efaf4c8b3c9afbd5ab9f4bbc82784ab6ef8faa6000806101000a81548173ffffffffffffffffffffffffffffffffffffffff021916908373ffffffffffffffffffffffffffffffffffffffff16021790555060019050611ed8565b600090505b90565b8060029080519060200190611ef1929190611f7f565b5050565b828054828255906000526020600020908101928215611f6e579160200282015b82811115611f6d5782518260006101000a81548173ffffffffffffffffffffffffffffffffffffffff021916908373ffffffffffffffffffffffffffffffffffffffff16021790555091602001919060010190611f15565b5b509050611f7b91906120a3565b5090565b828054600181600116156101000203166002900490600052602060002090601f016020900481019282601f10611fc057805160ff1916838001178555611fee565b82800160010185558215611fee579182015b82811115611fed578251825591602001919060010190611fd2565b5b509050611ffb91906120e6565b5090565b828054828255906000526020600020908101928215612078579160200282015b828111156120775782518260006101000a81548173ffffffffffffffffffffffffffffffffffffffff021916908373ffffffffffffffffffffffffffffffffffffffff1602179055509160200191906001019061201f565b5b50905061208591906120a3565b5090565b604080519081016040528060008152602001600081525090565b6120e391905b808211156120df57600081816101000a81549073ffffffffffffffffffffffffffffffffffffffff0219169055506001016120a9565b5090565b90565b61210891905b808211156121045760008160009055506001016120ec565b5090565b905600a165627a7a7230582047ebf46696c27975785dda15255e3d42a54a29d8a6f57755c3c5715784b610cf0029",
  "source": "pragma solidity ^0.4.19;\n\nimport \"../oraclize/oraclizeAPI_0.5.sol\";\nimport \"../stringutils/strings.sol\";\nimport 'zeppelin-solidity/contracts/lifecycle/Destructible.sol';\n\n\ncontract Bets is usingOraclize, Destructible {\n  using strings for *;\n\n  struct Bet {\n    uint total;\n    mapping(address => string) temperatures;\n    address[] addresses;\n  }\n\n  mapping(uint => Bet) public bets;\n  mapping(bytes32 => uint) public queryIds;\n\n  address[] private winners;\n\n  event LogBetCallback(bytes32 queryId);\n  event LogNewBet(bytes32 queryId);\n  event LogUint(bytes32 title, uint);\n\n  OraclizeAddrResolverI public OAR = OraclizeAddrResolverI(0x6f485C8BF6fc43eA212E93BBF8ce046C7f1cb475);\n\n  function() public payable {\n\n  }\n\n  function __callback(bytes32 queryId, string response) public {\n    require(msg.sender == oraclize_cbAddress());\n\n    uint timestamp = queryIds[queryId];\n    winners = new address[](0);\n    for (uint i = 0; i < bets[timestamp].addresses.length; i++) {\n      address currentAddress = bets[timestamp].addresses[i];\n      string memory temperature = bets[timestamp].temperatures[currentAddress];\n      bool isWinner = response.toSlice().startsWith(temperature.toSlice());\n      if (isWinner) {\n        winners.push(currentAddress);\n      }\n    }\n    if (winners.length > 0) {\n      LogUint(\"Total\", bets[timestamp].total);\n      LogUint(\"Winners\", winners.length);\n      uint sumToTransfer = bets[timestamp].total / winners.length;\n      LogUint(\"Prize\", sumToTransfer);\n      for (uint j = 0; j < winners.length; j++) {\n        winners[j].transfer(sumToTransfer);\n      }\n    }\n    LogBetCallback(queryId);\n  }\n\n  function addBet(string temperature, uint timestamp) public payable {\n    require(block.timestamp + 1 days < timestamp);\n\n    if (bets[timestamp].total > 0) {\n      bets[timestamp].total += msg.value;\n      bets[timestamp].temperatures[msg.sender] = temperature;\n      bool isPresent = false;\n      for (uint i = 0; i < bets[timestamp].addresses.length; i++) {\n        if (bets[timestamp].addresses[i] == msg.sender) {\n          isPresent = true;\n          break;\n        }\n      }\n      if (!isPresent) bets[timestamp].addresses.push(msg.sender);\n    } else {\n      bets[timestamp] = Bet({\n        total : msg.value,\n        addresses : new address[](0)\n        });\n      bets[timestamp].temperatures[msg.sender] = temperature;\n      bets[timestamp].addresses.push(msg.sender);\n\n      var url = \"json(https://www.metaweather.com/api/location/834463).consolidated_weather.0.the_temp\";\n      bytes32 queryId = oraclize_query(timestamp, \"URL\", url);\n      queryIds[queryId] = timestamp;\n      LogNewBet(queryId);\n    }\n  }\n}\n",
  "sourcePath": "/Users/melnikaite/projects/school_weather/contracts/Bets.sol",
  "compiler": {
    "name": "solc",
    "version": "0.4.23+commit.124ca40d.Emscripten.clang"
  },
  "schemaVersion": "2.0.0",
  "updatedAt": "2018-08-08T12:52:42.986Z"
}