{
  "contractName": "Bets",
  "abi": [
    {
      "constant": true,
      "inputs": [
        {
          "name": "",
          "type": "bytes32"
        }
      ],
      "name": "bets",
      "outputs": [
        {
          "name": "",
          "type": "string"
        }
      ],
      "payable": false,
      "stateMutability": "view",
      "type": "function"
    },
    {
      "anonymous": false,
      "inputs": [
        {
          "indexed": false,
          "name": "queryId",
          "type": "bytes32"
        },
        {
          "indexed": false,
          "name": "result",
          "type": "bool"
        }
      ],
      "name": "LogBetCallback",
      "type": "event"
    },
    {
      "anonymous": false,
      "inputs": [
        {
          "indexed": false,
          "name": "queryId",
          "type": "bytes32"
        },
        {
          "indexed": false,
          "name": "bet",
          "type": "string"
        }
      ],
      "name": "LogNewBet",
      "type": "event"
    },
    {
      "constant": false,
      "inputs": [
        {
          "name": "queryId",
          "type": "bytes32"
        },
        {
          "name": "response",
          "type": "string"
        }
      ],
      "name": "__callback",
      "outputs": [],
      "payable": false,
      "stateMutability": "nonpayable",
      "type": "function"
    },
    {
      "constant": false,
      "inputs": [
        {
          "name": "myid",
          "type": "bytes32"
        },
        {
          "name": "result",
          "type": "string"
        },
        {
          "name": "proof",
          "type": "bytes"
        }
      ],
      "name": "__callback",
      "outputs": [],
      "payable": false,
      "stateMutability": "nonpayable",
      "type": "function"
    },
    {
      "constant": false,
      "inputs": [
        {
          "name": "bet",
          "type": "string"
        }
      ],
      "name": "addBet",
      "outputs": [],
      "payable": true,
      "stateMutability": "payable",
      "type": "function"
    }
  ],
  "bytecode": "0x6060604052736f485c8bf6fc43ea212e93bbf8ce046c7f1cb475600660006101000a81548173ffffffffffffffffffffffffffffffffffffffff021916908373ffffffffffffffffffffffffffffffffffffffff160217905550341561006457600080fd5b6114e5806100736000396000f300606060405260043610610062576000357c0100000000000000000000000000000000000000000000000000000000900463ffffffff16806327dc297e1461006757806338bbfa50146100d1578063c902c3ae1461017e578063cd53dab11461021e575b600080fd5b341561007257600080fd5b6100cf60048080356000191690602001909190803590602001908201803590602001908080601f01602080910402602001604051908101604052809392919081815260200183838082843782019150505050505091905050610270565b005b34156100dc57600080fd5b61017c60048080356000191690602001909190803590602001908201803590602001908080601f0160208091040260200160405190810160405280939291908181526020018383808284378201915050505050509190803590602001908201803590602001908080601f016020809104026020016040519081016040528093929190818152602001838380828437820191505050505050919050506103db565b005b341561018957600080fd5b6101a36004808035600019169060200190919050506103e0565b6040518080602001828103825283818151815260200191508051906020019080838360005b838110156101e35780820151818401526020810190506101c8565b50505050905090810190601f1680156102105780820380516001836020036101000a031916815260200191505b509250505060405180910390f35b61026e600480803590602001908201803590602001908080601f01602080910402602001604051908101604052809392919081815260200183838082843782019150505050505091905050610490565b005b600061027a610643565b73ffffffffffffffffffffffffffffffffffffffff163373ffffffffffffffffffffffffffffffffffffffff161415156102b357600080fd5b6103896103726005600086600019166000191681526020019081526020016000208054600181600116156101000203166002900480601f0160208091040260200160405190810160405280929190818152602001828054600181600116156101000203166002900480156103685780601f1061033d57610100808354040283529160200191610368565b820191906000526020600020905b81548152906001019060200180831161034b57829003601f168201915b5050505050610959565b61037b84610959565b61098790919063ffffffff16565b90507f90f7d857cafe207c3b2e2cbc269fa322daf0ff0ff412b5200196f13173bb12ce8382604051808360001916600019168152602001821515151581526020019250505060405180910390a1505050565b505050565b60056020528060005260406000206000915090508054600181600116156101000203166002900480601f0160208091040260200160405190810160405280929190818152602001828054600181600116156101000203166002900480156104885780601f1061045d57610100808354040283529160200191610488565b820191906000526020600020905b81548152906001019060200180831161046b57829003601f168201915b505050505081565b6104986113e6565b6000608060405190810160405280605581526020017f6a736f6e2868747470733a2f2f7777772e6d657461776561746865722e636f6d81526020017f2f6170692f6c6f636174696f6e2f383334343633292e636f6e736f6c6964617481526020017f65645f776561746865722e302e7468655f74656d7000000000000000000000008152509150610560603c6040805190810160405280600381526020017f55524c0000000000000000000000000000000000000000000000000000000000815250846109df565b90508260056000836000191660001916815260200190815260200160002090805190602001906105919291906113fa565b507fe8f0774ae4cc5d03caabe1b0189bcbf71cb228c96bd4b2ead59b8f2ea23c2c0e818460405180836000191660001916815260200180602001828103825283818151815260200191508051906020019080838360005b838110156106035780820151818401526020810190506105e8565b50505050905090810190601f1680156106305780820380516001836020036101000a031916815260200191505b50935050505060405180910390a1505050565b6000806000809054906101000a900473ffffffffffffffffffffffffffffffffffffffff1673ffffffffffffffffffffffffffffffffffffffff1614806106b3575060006106b16000809054906101000a900473ffffffffffffffffffffffffffffffffffffffff16610f21565b145b156106c4576106c26000610f2c565b505b6000809054906101000a900473ffffffffffffffffffffffffffffffffffffffff1673ffffffffffffffffffffffffffffffffffffffff166338cc48316000604051602001526040518163ffffffff167c0100000000000000000000000000000000000000000000000000000000028152600401602060405180830381600087803b151561075157600080fd5b6102c65a03f1151561076257600080fd5b5050506040518051905073ffffffffffffffffffffffffffffffffffffffff16600160009054906101000a900473ffffffffffffffffffffffffffffffffffffffff1673ffffffffffffffffffffffffffffffffffffffff161415156108ab576000809054906101000a900473ffffffffffffffffffffffffffffffffffffffff1673ffffffffffffffffffffffffffffffffffffffff166338cc48316000604051602001526040518163ffffffff167c0100000000000000000000000000000000000000000000000000000000028152600401602060405180830381600087803b151561084f57600080fd5b6102c65a03f1151561086057600080fd5b50505060405180519050600160006101000a81548173ffffffffffffffffffffffffffffffffffffffff021916908373ffffffffffffffffffffffffffffffffffffffff1602179055505b600160009054906101000a900473ffffffffffffffffffffffffffffffffffffffff1673ffffffffffffffffffffffffffffffffffffffff1663c281d19e6000604051602001526040518163ffffffff167c0100000000000000000000000000000000000000000000000000000000028152600401602060405180830381600087803b151561093957600080fd5b6102c65a03f1151561094a57600080fd5b50505060405180519050905090565b61096161147a565b600060208301905060408051908101604052808451815260200182815250915050919050565b6000808260000151846000015110156109a357600091506109d8565b8260200151846020015114156109bc57600191506109d8565b8251602085015160208501518281208383201493505050508091505b5092915050565b60008060008060009054906101000a900473ffffffffffffffffffffffffffffffffffffffff1673ffffffffffffffffffffffffffffffffffffffff161480610a5157506000610a4f6000809054906101000a900473ffffffffffffffffffffffffffffffffffffffff16610f21565b145b15610a6257610a606000610f2c565b505b6000809054906101000a900473ffffffffffffffffffffffffffffffffffffffff1673ffffffffffffffffffffffffffffffffffffffff166338cc48316000604051602001526040518163ffffffff167c0100000000000000000000000000000000000000000000000000000000028152600401602060405180830381600087803b1515610aef57600080fd5b6102c65a03f11515610b0057600080fd5b5050506040518051905073ffffffffffffffffffffffffffffffffffffffff16600160009054906101000a900473ffffffffffffffffffffffffffffffffffffffff1673ffffffffffffffffffffffffffffffffffffffff16141515610c49576000809054906101000a900473ffffffffffffffffffffffffffffffffffffffff1673ffffffffffffffffffffffffffffffffffffffff166338cc48316000604051602001526040518163ffffffff167c0100000000000000000000000000000000000000000000000000000000028152600401602060405180830381600087803b1515610bed57600080fd5b6102c65a03f11515610bfe57600080fd5b50505060405180519050600160006101000a81548173ffffffffffffffffffffffffffffffffffffffff021916908373ffffffffffffffffffffffffffffffffffffffff1602179055505b600160009054906101000a900473ffffffffffffffffffffffffffffffffffffffff1673ffffffffffffffffffffffffffffffffffffffff1663524f3889856000604051602001526040518263ffffffff167c01000000000000000000000000000000000000000000000000000000000281526004018080602001828103825283818151815260200191508051906020019080838360005b83811015610cfc578082015181840152602081019050610ce1565b50505050905090810190601f168015610d295780820380516001836020036101000a031916815260200191505b5092505050602060405180830381600087803b1515610d4757600080fd5b6102c65a03f11515610d5857600080fd5b50505060405180519050905062030d403a02670de0b6b3a764000001811115610d875760006001029150610f19565b600160009054906101000a900473ffffffffffffffffffffffffffffffffffffffff1673ffffffffffffffffffffffffffffffffffffffff1663adf59f99828787876000604051602001526040518563ffffffff167c0100000000000000000000000000000000000000000000000000000000028152600401808481526020018060200180602001838103835285818151815260200191508051906020019080838360005b83811015610e47578082015181840152602081019050610e2c565b50505050905090810190601f168015610e745780820380516001836020036101000a031916815260200191505b50838103825284818151815260200191508051906020019080838360005b83811015610ead578082015181840152602081019050610e92565b50505050905090810190601f168015610eda5780820380516001836020036101000a031916815260200191505b50955050505050506020604051808303818588803b1515610efa57600080fd5b6125ee5a03f11515610f0b57600080fd5b505050506040518051905091505b509392505050565b6000813b9050919050565b6000610f36610f3d565b9050919050565b600080610f5d731d3b2638a7cc9f2cb3d298a3da7a90b67e5506ed610f21565b1115610ffe57731d3b2638a7cc9f2cb3d298a3da7a90b67e5506ed6000806101000a81548173ffffffffffffffffffffffffffffffffffffffff021916908373ffffffffffffffffffffffffffffffffffffffff160217905550610ff56040805190810160405280600b81526020017f6574685f6d61696e6e65740000000000000000000000000000000000000000008152506113cc565b600190506113c9565b600061101d73c03a2615d5efaf5f49f60b7bb6583eaec212fdf1610f21565b11156110be5773c03a2615d5efaf5f49f60b7bb6583eaec212fdf16000806101000a81548173ffffffffffffffffffffffffffffffffffffffff021916908373ffffffffffffffffffffffffffffffffffffffff1602179055506110b56040805190810160405280600c81526020017f6574685f726f707374656e3300000000000000000000000000000000000000008152506113cc565b600190506113c9565b60006110dd73b7a07bcf2ba2f2703b24c0691b5278999c59ac7e610f21565b111561117e5773b7a07bcf2ba2f2703b24c0691b5278999c59ac7e6000806101000a81548173ffffffffffffffffffffffffffffffffffffffff021916908373ffffffffffffffffffffffffffffffffffffffff1602179055506111756040805190810160405280600981526020017f6574685f6b6f76616e00000000000000000000000000000000000000000000008152506113cc565b600190506113c9565b600061119d73146500cfd35b22e4a392fe0adc06de1a1368ed48610f21565b111561123e5773146500cfd35b22e4a392fe0adc06de1a1368ed486000806101000a81548173ffffffffffffffffffffffffffffffffffffffff021916908373ffffffffffffffffffffffffffffffffffffffff1602179055506112356040805190810160405280600b81526020017f6574685f72696e6b6562790000000000000000000000000000000000000000008152506113cc565b600190506113c9565b600061125d736f485c8bf6fc43ea212e93bbf8ce046c7f1cb475610f21565b11156112c057736f485c8bf6fc43ea212e93bbf8ce046c7f1cb4756000806101000a81548173ffffffffffffffffffffffffffffffffffffffff021916908373ffffffffffffffffffffffffffffffffffffffff160217905550600190506113c9565b60006112df7320e12a1f859b3feae5fb2a0a32c18f5a65555bbf610f21565b1115611342577320e12a1f859b3feae5fb2a0a32c18f5a65555bbf6000806101000a81548173ffffffffffffffffffffffffffffffffffffffff021916908373ffffffffffffffffffffffffffffffffffffffff160217905550600190506113c9565b60006113617351efaf4c8b3c9afbd5ab9f4bbc82784ab6ef8faa610f21565b11156113c4577351efaf4c8b3c9afbd5ab9f4bbc82784ab6ef8faa6000806101000a81548173ffffffffffffffffffffffffffffffffffffffff021916908373ffffffffffffffffffffffffffffffffffffffff160217905550600190506113c9565b600090505b90565b80600290805190602001906113e29291906113fa565b5050565b602060405190810160405280600081525090565b828054600181600116156101000203166002900490600052602060002090601f016020900481019282601f1061143b57805160ff1916838001178555611469565b82800160010185558215611469579182015b8281111561146857825182559160200191906001019061144d565b5b5090506114769190611494565b5090565b604080519081016040528060008152602001600081525090565b6114b691905b808211156114b257600081600090555060010161149a565b5090565b905600a165627a7a723058205604b1dae8f633adf1ffa1d7ea34b56a510372ff39485cb04d917d57da1239260029",
  "source": "pragma solidity 0.4.19;\n\nimport \"../external/oraclize/oraclizeAPI_0.5.sol\";\nimport \"../external/stringutils/strings.sol\";\n\n\ncontract Bets is usingOraclize {\n  using strings for *;\n\n  mapping(bytes32 => string) public bets;\n\n  event LogBetCallback(bytes32 queryId, bool result);\n  event LogNewBet(bytes32 queryId, string bet);\n\n  OraclizeAddrResolverI OAR = OraclizeAddrResolverI(0x6f485C8BF6fc43eA212E93BBF8ce046C7f1cb475);\n\n  function __callback(bytes32 queryId, string response) public {\n    require(msg.sender == oraclize_cbAddress());\n    bool result = response.toSlice().startsWith(bets[queryId].toSlice());\n    LogBetCallback(queryId, result);\n  }\n\n  function addBet(string bet) public payable {\n    var url = \"json(https://www.metaweather.com/api/location/834463).consolidated_weather.0.the_temp\";\n    bytes32 queryId = oraclize_query(1 minutes, \"URL\", url);\n    bets[queryId] = bet;\n    LogNewBet(queryId, bet);\n  }\n}\n",
  "sourcePath": "/Users/melnikaite/projects/school_weather/contracts/Bets.sol",
  "compiler": {
    "name": "solc",
    "version": "0.4.19+commit.c4cbbb05.Emscripten.clang"
  },
  "schemaVersion": "2.0.0",
  "updatedAt": "2018-03-23T19:02:38.610Z"
}