{
  "contractName": "Bets",
  "abi": [
    {
      "constant": true,
      "inputs": [
        {
          "name": "",
          "type": "uint256"
        }
      ],
      "name": "bets",
      "outputs": [
        {
          "name": "total",
          "type": "uint256"
        }
      ],
      "payable": false,
      "stateMutability": "view",
      "type": "function"
    },
    {
      "constant": true,
      "inputs": [
        {
          "name": "",
          "type": "bytes32"
        }
      ],
      "name": "queryIds",
      "outputs": [
        {
          "name": "",
          "type": "uint256"
        }
      ],
      "payable": false,
      "stateMutability": "view",
      "type": "function"
    },
    {
      "constant": false,
      "inputs": [],
      "name": "destroy",
      "outputs": [],
      "payable": false,
      "stateMutability": "nonpayable",
      "type": "function"
    },
    {
      "constant": true,
      "inputs": [],
      "name": "owner",
      "outputs": [
        {
          "name": "",
          "type": "address"
        }
      ],
      "payable": false,
      "stateMutability": "view",
      "type": "function"
    },
    {
      "constant": true,
      "inputs": [],
      "name": "OAR",
      "outputs": [
        {
          "name": "",
          "type": "address"
        }
      ],
      "payable": false,
      "stateMutability": "view",
      "type": "function"
    },
    {
      "constant": false,
      "inputs": [
        {
          "name": "newOwner",
          "type": "address"
        }
      ],
      "name": "transferOwnership",
      "outputs": [],
      "payable": false,
      "stateMutability": "nonpayable",
      "type": "function"
    },
    {
      "constant": false,
      "inputs": [
        {
          "name": "_recipient",
          "type": "address"
        }
      ],
      "name": "destroyAndSend",
      "outputs": [],
      "payable": false,
      "stateMutability": "nonpayable",
      "type": "function"
    },
    {
      "payable": true,
      "stateMutability": "payable",
      "type": "fallback"
    },
    {
      "anonymous": false,
      "inputs": [
        {
          "indexed": false,
          "name": "queryId",
          "type": "bytes32"
        }
      ],
      "name": "LogBetCallback",
      "type": "event"
    },
    {
      "anonymous": false,
      "inputs": [
        {
          "indexed": false,
          "name": "queryId",
          "type": "bytes32"
        }
      ],
      "name": "LogNewBet",
      "type": "event"
    },
    {
      "anonymous": false,
      "inputs": [
        {
          "indexed": false,
          "name": "title",
          "type": "bytes32"
        },
        {
          "indexed": false,
          "name": "",
          "type": "uint256"
        }
      ],
      "name": "LogUint",
      "type": "event"
    },
    {
      "anonymous": false,
      "inputs": [
        {
          "indexed": true,
          "name": "previousOwner",
          "type": "address"
        },
        {
          "indexed": true,
          "name": "newOwner",
          "type": "address"
        }
      ],
      "name": "OwnershipTransferred",
      "type": "event"
    },
    {
      "constant": false,
      "inputs": [
        {
          "name": "queryId",
          "type": "bytes32"
        },
        {
          "name": "response",
          "type": "string"
        }
      ],
      "name": "__callback",
      "outputs": [],
      "payable": false,
      "stateMutability": "nonpayable",
      "type": "function"
    },
    {
      "constant": false,
      "inputs": [
        {
          "name": "myid",
          "type": "bytes32"
        },
        {
          "name": "result",
          "type": "string"
        },
        {
          "name": "proof",
          "type": "bytes"
        }
      ],
      "name": "__callback",
      "outputs": [],
      "payable": false,
      "stateMutability": "nonpayable",
      "type": "function"
    },
    {
      "constant": false,
      "inputs": [
        {
          "name": "temperature",
          "type": "string"
        },
        {
          "name": "timestamp",
          "type": "uint256"
        }
      ],
      "name": "addBet",
      "outputs": [],
      "payable": true,
      "stateMutability": "payable",
      "type": "function"
    }
  ],
  "bytecode": "0x6060604052736f485c8bf6fc43ea212e93bbf8ce046c7f1cb475600960006101000a81548173ffffffffffffffffffffffffffffffffffffffff021916908373ffffffffffffffffffffffffffffffffffffffff16021790555033600560006101000a81548173ffffffffffffffffffffffffffffffffffffffff021916908373ffffffffffffffffffffffffffffffffffffffff160217905550612054806100a96000396000f3006060604052600436106100a4576000357c0100000000000000000000000000000000000000000000000000000000900463ffffffff16806322af00fa146100a657806327dc297e146100dd57806331460e3d1461014757806338bbfa501461018257806383197ef01461022f5780638da5cb5b146102445780639e1c9c9f14610299578063c90c589a146102f4578063f2fde38b14610349578063f5074f4114610382575b005b34156100b157600080fd5b6100c760048080359060200190919050506103bb565b6040518082815260200191505060405180910390f35b34156100e857600080fd5b61014560048080356000191690602001909190803590602001908201803590602001908080601f016020809104026020016040519081016040528093929190818152602001838380828437820191505050505050919050506103d9565b005b341561015257600080fd5b61016c6004808035600019169060200190919050506108d4565b6040518082815260200191505060405180910390f35b341561018d57600080fd5b61022d60048080356000191690602001909190803590602001908201803590602001908080601f0160208091040260200160405190810160405280939291908181526020018383808284378201915050505050509190803590602001908201803590602001908080601f016020809104026020016040519081016040528093929190818152602001838380828437820191505050505050919050506108ec565b005b341561023a57600080fd5b6102426108f1565b005b341561024f57600080fd5b610257610988565b604051808273ffffffffffffffffffffffffffffffffffffffff1673ffffffffffffffffffffffffffffffffffffffff16815260200191505060405180910390f35b6102f2600480803590602001908201803590602001908080601f016020809104026020016040519081016040528093929190818152602001838380828437820191505050505050919080359060200190919050506109ae565b005b34156102ff57600080fd5b610307610e3c565b604051808273ffffffffffffffffffffffffffffffffffffffff1673ffffffffffffffffffffffffffffffffffffffff16815260200191505060405180910390f35b341561035457600080fd5b610380600480803573ffffffffffffffffffffffffffffffffffffffff16906020019091905050610e62565b005b341561038d57600080fd5b6103b9600480803573ffffffffffffffffffffffffffffffffffffffff16906020019091905050610fba565b005b60066020528060005260406000206000915090508060000154905081565b60008060006103e6611dd2565b60008060006103f361102f565b73ffffffffffffffffffffffffffffffffffffffff163373ffffffffffffffffffffffffffffffffffffffff1614151561042c57600080fd5b600760008a6000191660001916815260200190815260200160002054965060006040518059106104595750595b90808252806020026020018201604052506008908051906020019061047f929190611de6565b50600095505b60066000888152602001908152602001600020600201805490508610156106815760066000888152602001908152602001600020600201868154811015156104c957fe5b906000526020600020900160009054906101000a900473ffffffffffffffffffffffffffffffffffffffff1694506006600088815260200190815260200160002060010160008673ffffffffffffffffffffffffffffffffffffffff1673ffffffffffffffffffffffffffffffffffffffff1681526020019081526020016000208054600181600116156101000203166002900480601f0160208091040260200160405190810160405280929190818152602001828054600181600116156101000203166002900480156105de5780601f106105b3576101008083540402835291602001916105de565b820191906000526020600020905b8154815290600101906020018083116105c157829003601f168201915b505050505093506106086105f185611345565b6105fa8a611345565b61137390919063ffffffff16565b9250821561067457600880548060010182816106249190611e70565b9160005260206000209001600087909190916101000a81548173ffffffffffffffffffffffffffffffffffffffff021916908373ffffffffffffffffffffffffffffffffffffffff160217905550505b8580600101965050610485565b6000600880549050111561088a577f4b30f46de0dbd71070888f5ec429fe7128dfbe8ee1ed10811ae415da99311313600660008981526020019081526020016000206000015460405180807f546f74616c00000000000000000000000000000000000000000000000000000081525060200182815260200191505060405180910390a17f4b30f46de0dbd71070888f5ec429fe7128dfbe8ee1ed10811ae415da9931131360088054905060405180807f57696e6e6572730000000000000000000000000000000000000000000000000081525060200182815260200191505060405180910390a1600880549050600660008981526020019081526020016000206000015481151561078e57fe5b0491507f4b30f46de0dbd71070888f5ec429fe7128dfbe8ee1ed10811ae415da993113138260405180807f5072697a6500000000000000000000000000000000000000000000000000000081525060200182815260200191505060405180910390a1600090505b6008805490508110156108895760088181548110151561081157fe5b906000526020600020900160009054906101000a900473ffffffffffffffffffffffffffffffffffffffff1673ffffffffffffffffffffffffffffffffffffffff166108fc839081150290604051600060405180830381858888f19350505050151561087c57600080fd5b80806001019150506107f5565b5b7f31b18346a03ee8ac6932fb40dff675d319e94adb1039ddc2cc90b8f5da5b63b48960405180826000191660001916815260200191505060405180910390a1505050505050505050565b60076020528060005260406000206000915090505481565b505050565b600560009054906101000a900473ffffffffffffffffffffffffffffffffffffffff1673ffffffffffffffffffffffffffffffffffffffff163373ffffffffffffffffffffffffffffffffffffffff1614151561094d57600080fd5b600560009054906101000a900473ffffffffffffffffffffffffffffffffffffffff1673ffffffffffffffffffffffffffffffffffffffff16ff5b600560009054906101000a900473ffffffffffffffffffffffffffffffffffffffff1681565b6000806109b9611dd2565b600084600142011015156109cc57600080fd5b600060066000878152602001908152602001600020600001541115610bbd57346006600087815260200190815260200160002060000160008282540192505081905550856006600087815260200190815260200160002060010160003373ffffffffffffffffffffffffffffffffffffffff1673ffffffffffffffffffffffffffffffffffffffff1681526020019081526020016000209080519060200190610a76929190611e9c565b5060009350600092505b6006600086815260200190815260200160002060020180549050831015610b39573373ffffffffffffffffffffffffffffffffffffffff166006600087815260200190815260200160002060020184815481101515610adb57fe5b906000526020600020900160009054906101000a900473ffffffffffffffffffffffffffffffffffffffff1673ffffffffffffffffffffffffffffffffffffffff161415610b2c5760019350610b39565b8280600101935050610a80565b831515610bb857600660008681526020019081526020016000206002018054806001018281610b689190611e70565b9160005260206000209001600033909190916101000a81548173ffffffffffffffffffffffffffffffffffffffff021916908373ffffffffffffffffffffffffffffffffffffffff160217905550505b610e34565b60408051908101604052803481526020016000604051805910610bdd5750595b908082528060200260200182016040525081525060066000878152602001908152602001600020600082015181600001556020820151816002019080519060200190610c2a929190611f1c565b50905050856006600087815260200190815260200160002060010160003373ffffffffffffffffffffffffffffffffffffffff1673ffffffffffffffffffffffffffffffffffffffff1681526020019081526020016000209080519060200190610c95929190611e9c565b50600660008681526020019081526020016000206002018054806001018281610cbe9190611e70565b9160005260206000209001600033909190916101000a81548173ffffffffffffffffffffffffffffffffffffffff021916908373ffffffffffffffffffffffffffffffffffffffff16021790555050608060405190810160405280605581526020017f6a736f6e2868747470733a2f2f7777772e6d657461776561746865722e636f6d81526020017f2f6170692f6c6f636174696f6e2f383334343633292e636f6e736f6c6964617481526020017f65645f776561746865722e302e7468655f74656d7000000000000000000000008152509150610dd2856040805190810160405280600381526020017f55524c0000000000000000000000000000000000000000000000000000000000815250846113cb565b905084600760008360001916600019168152602001908152602001600020819055507f2ad742a83dd7365ed51463d9e9f3b35ae79568015d2f31051d8fe86d8564ae768160405180826000191660001916815260200191505060405180910390a15b505050505050565b600960009054906101000a900473ffffffffffffffffffffffffffffffffffffffff1681565b600560009054906101000a900473ffffffffffffffffffffffffffffffffffffffff1673ffffffffffffffffffffffffffffffffffffffff163373ffffffffffffffffffffffffffffffffffffffff16141515610ebe57600080fd5b600073ffffffffffffffffffffffffffffffffffffffff168173ffffffffffffffffffffffffffffffffffffffff1614151515610efa57600080fd5b8073ffffffffffffffffffffffffffffffffffffffff16600560009054906101000a900473ffffffffffffffffffffffffffffffffffffffff1673ffffffffffffffffffffffffffffffffffffffff167f8be0079c531659141344cd1fd0a4f28419497f9722a3daafe3b4186f6b6457e060405160405180910390a380600560006101000a81548173ffffffffffffffffffffffffffffffffffffffff021916908373ffffffffffffffffffffffffffffffffffffffff16021790555050565b600560009054906101000a900473ffffffffffffffffffffffffffffffffffffffff1673ffffffffffffffffffffffffffffffffffffffff163373ffffffffffffffffffffffffffffffffffffffff1614151561101657600080fd5b8073ffffffffffffffffffffffffffffffffffffffff16ff5b6000806000809054906101000a900473ffffffffffffffffffffffffffffffffffffffff1673ffffffffffffffffffffffffffffffffffffffff16148061109f5750600061109d6000809054906101000a900473ffffffffffffffffffffffffffffffffffffffff1661190d565b145b156110b0576110ae6000611918565b505b6000809054906101000a900473ffffffffffffffffffffffffffffffffffffffff1673ffffffffffffffffffffffffffffffffffffffff166338cc48316000604051602001526040518163ffffffff167c0100000000000000000000000000000000000000000000000000000000028152600401602060405180830381600087803b151561113d57600080fd5b6102c65a03f1151561114e57600080fd5b5050506040518051905073ffffffffffffffffffffffffffffffffffffffff16600160009054906101000a900473ffffffffffffffffffffffffffffffffffffffff1673ffffffffffffffffffffffffffffffffffffffff16141515611297576000809054906101000a900473ffffffffffffffffffffffffffffffffffffffff1673ffffffffffffffffffffffffffffffffffffffff166338cc48316000604051602001526040518163ffffffff167c0100000000000000000000000000000000000000000000000000000000028152600401602060405180830381600087803b151561123b57600080fd5b6102c65a03f1151561124c57600080fd5b50505060405180519050600160006101000a81548173ffffffffffffffffffffffffffffffffffffffff021916908373ffffffffffffffffffffffffffffffffffffffff1602179055505b600160009054906101000a900473ffffffffffffffffffffffffffffffffffffffff1673ffffffffffffffffffffffffffffffffffffffff1663c281d19e6000604051602001526040518163ffffffff167c0100000000000000000000000000000000000000000000000000000000028152600401602060405180830381600087803b151561132557600080fd5b6102c65a03f1151561133657600080fd5b50505060405180519050905090565b61134d611fa6565b600060208301905060408051908101604052808451815260200182815250915050919050565b60008082600001518460000151101561138f57600091506113c4565b8260200151846020015114156113a857600191506113c4565b8251602085015160208501518281208383201493505050508091505b5092915050565b60008060008060009054906101000a900473ffffffffffffffffffffffffffffffffffffffff1673ffffffffffffffffffffffffffffffffffffffff16148061143d5750600061143b6000809054906101000a900473ffffffffffffffffffffffffffffffffffffffff1661190d565b145b1561144e5761144c6000611918565b505b6000809054906101000a900473ffffffffffffffffffffffffffffffffffffffff1673ffffffffffffffffffffffffffffffffffffffff166338cc48316000604051602001526040518163ffffffff167c0100000000000000000000000000000000000000000000000000000000028152600401602060405180830381600087803b15156114db57600080fd5b6102c65a03f115156114ec57600080fd5b5050506040518051905073ffffffffffffffffffffffffffffffffffffffff16600160009054906101000a900473ffffffffffffffffffffffffffffffffffffffff1673ffffffffffffffffffffffffffffffffffffffff16141515611635576000809054906101000a900473ffffffffffffffffffffffffffffffffffffffff1673ffffffffffffffffffffffffffffffffffffffff166338cc48316000604051602001526040518163ffffffff167c0100000000000000000000000000000000000000000000000000000000028152600401602060405180830381600087803b15156115d957600080fd5b6102c65a03f115156115ea57600080fd5b50505060405180519050600160006101000a81548173ffffffffffffffffffffffffffffffffffffffff021916908373ffffffffffffffffffffffffffffffffffffffff1602179055505b600160009054906101000a900473ffffffffffffffffffffffffffffffffffffffff1673ffffffffffffffffffffffffffffffffffffffff1663524f3889856000604051602001526040518263ffffffff167c01000000000000000000000000000000000000000000000000000000000281526004018080602001828103825283818151815260200191508051906020019080838360005b838110156116e85780820151818401526020810190506116cd565b50505050905090810190601f1680156117155780820380516001836020036101000a031916815260200191505b5092505050602060405180830381600087803b151561173357600080fd5b6102c65a03f1151561174457600080fd5b50505060405180519050905062030d403a02670de0b6b3a7640000018111156117735760006001029150611905565b600160009054906101000a900473ffffffffffffffffffffffffffffffffffffffff1673ffffffffffffffffffffffffffffffffffffffff1663adf59f99828787876000604051602001526040518563ffffffff167c0100000000000000000000000000000000000000000000000000000000028152600401808481526020018060200180602001838103835285818151815260200191508051906020019080838360005b83811015611833578082015181840152602081019050611818565b50505050905090810190601f1680156118605780820380516001836020036101000a031916815260200191505b50838103825284818151815260200191508051906020019080838360005b8381101561189957808201518184015260208101905061187e565b50505050905090810190601f1680156118c65780820380516001836020036101000a031916815260200191505b50955050505050506020604051808303818588803b15156118e657600080fd5b6125ee5a03f115156118f757600080fd5b505050506040518051905091505b509392505050565b6000813b9050919050565b6000611922611929565b9050919050565b600080611949731d3b2638a7cc9f2cb3d298a3da7a90b67e5506ed61190d565b11156119ea57731d3b2638a7cc9f2cb3d298a3da7a90b67e5506ed6000806101000a81548173ffffffffffffffffffffffffffffffffffffffff021916908373ffffffffffffffffffffffffffffffffffffffff1602179055506119e16040805190810160405280600b81526020017f6574685f6d61696e6e6574000000000000000000000000000000000000000000815250611db8565b60019050611db5565b6000611a0973c03a2615d5efaf5f49f60b7bb6583eaec212fdf161190d565b1115611aaa5773c03a2615d5efaf5f49f60b7bb6583eaec212fdf16000806101000a81548173ffffffffffffffffffffffffffffffffffffffff021916908373ffffffffffffffffffffffffffffffffffffffff160217905550611aa16040805190810160405280600c81526020017f6574685f726f707374656e330000000000000000000000000000000000000000815250611db8565b60019050611db5565b6000611ac973b7a07bcf2ba2f2703b24c0691b5278999c59ac7e61190d565b1115611b6a5773b7a07bcf2ba2f2703b24c0691b5278999c59ac7e6000806101000a81548173ffffffffffffffffffffffffffffffffffffffff021916908373ffffffffffffffffffffffffffffffffffffffff160217905550611b616040805190810160405280600981526020017f6574685f6b6f76616e0000000000000000000000000000000000000000000000815250611db8565b60019050611db5565b6000611b8973146500cfd35b22e4a392fe0adc06de1a1368ed4861190d565b1115611c2a5773146500cfd35b22e4a392fe0adc06de1a1368ed486000806101000a81548173ffffffffffffffffffffffffffffffffffffffff021916908373ffffffffffffffffffffffffffffffffffffffff160217905550611c216040805190810160405280600b81526020017f6574685f72696e6b656279000000000000000000000000000000000000000000815250611db8565b60019050611db5565b6000611c49736f485c8bf6fc43ea212e93bbf8ce046c7f1cb47561190d565b1115611cac57736f485c8bf6fc43ea212e93bbf8ce046c7f1cb4756000806101000a81548173ffffffffffffffffffffffffffffffffffffffff021916908373ffffffffffffffffffffffffffffffffffffffff16021790555060019050611db5565b6000611ccb7320e12a1f859b3feae5fb2a0a32c18f5a65555bbf61190d565b1115611d2e577320e12a1f859b3feae5fb2a0a32c18f5a65555bbf6000806101000a81548173ffffffffffffffffffffffffffffffffffffffff021916908373ffffffffffffffffffffffffffffffffffffffff16021790555060019050611db5565b6000611d4d7351efaf4c8b3c9afbd5ab9f4bbc82784ab6ef8faa61190d565b1115611db0577351efaf4c8b3c9afbd5ab9f4bbc82784ab6ef8faa6000806101000a81548173ffffffffffffffffffffffffffffffffffffffff021916908373ffffffffffffffffffffffffffffffffffffffff16021790555060019050611db5565b600090505b90565b8060029080519060200190611dce929190611e9c565b5050565b602060405190810160405280600081525090565b828054828255906000526020600020908101928215611e5f579160200282015b82811115611e5e5782518260006101000a81548173ffffffffffffffffffffffffffffffffffffffff021916908373ffffffffffffffffffffffffffffffffffffffff16021790555091602001919060010190611e06565b5b509050611e6c9190611fc0565b5090565b815481835581811511611e9757818360005260206000209182019101611e969190612003565b5b505050565b828054600181600116156101000203166002900490600052602060002090601f016020900481019282601f10611edd57805160ff1916838001178555611f0b565b82800160010185558215611f0b579182015b82811115611f0a578251825591602001919060010190611eef565b5b509050611f189190612003565b5090565b828054828255906000526020600020908101928215611f95579160200282015b82811115611f945782518260006101000a81548173ffffffffffffffffffffffffffffffffffffffff021916908373ffffffffffffffffffffffffffffffffffffffff16021790555091602001919060010190611f3c565b5b509050611fa29190611fc0565b5090565b604080519081016040528060008152602001600081525090565b61200091905b80821115611ffc57600081816101000a81549073ffffffffffffffffffffffffffffffffffffffff021916905550600101611fc6565b5090565b90565b61202591905b80821115612021576000816000905550600101612009565b5090565b905600a165627a7a723058205e173397fb037653d3af7a39d507dd9aaeaa1a1cc82cca43155277a3a4b3dcba0029",
  "source": "pragma solidity 0.4.19;\n\nimport \"../external/oraclize/oraclizeAPI_0.5.sol\";\nimport \"../external/stringutils/strings.sol\";\nimport 'zeppelin-solidity/contracts/lifecycle/Destructible.sol';\n\n\ncontract Bets is usingOraclize, Destructible {\n  using strings for *;\n\n  struct Bet {\n    uint total;\n    mapping(address => string) temperatures;\n    address[] addresses;\n  }\n\n  mapping(uint => Bet) public bets;\n  mapping(bytes32 => uint) public queryIds;\n\n  address[] private winners;\n\n  event LogBetCallback(bytes32 queryId);\n  event LogNewBet(bytes32 queryId);\n  event LogUint(bytes32 title, uint);\n\n  OraclizeAddrResolverI public OAR = OraclizeAddrResolverI(0x6f485C8BF6fc43eA212E93BBF8ce046C7f1cb475);\n\n  function() payable {\n\n  }\n\n  function __callback(bytes32 queryId, string response) public {\n    require(msg.sender == oraclize_cbAddress());\n\n    uint timestamp = queryIds[queryId];\n    winners = new address[](0);\n    for (uint i = 0; i < bets[timestamp].addresses.length; i++) {\n      address currentAddress = bets[timestamp].addresses[i];\n      string memory temperature = bets[timestamp].temperatures[currentAddress];\n      bool isWinner = response.toSlice().startsWith(temperature.toSlice());\n      if (isWinner) {\n        winners.push(currentAddress);\n      }\n    }\n    if (winners.length > 0) {\n      LogUint(\"Total\", bets[timestamp].total);\n      LogUint(\"Winners\", winners.length);\n      uint sumToTransfer = bets[timestamp].total / winners.length;\n      LogUint(\"Prize\", sumToTransfer);\n      for (uint j = 0; j < winners.length; j++) {\n        winners[j].transfer(sumToTransfer);\n      }\n    }\n    LogBetCallback(queryId);\n  }\n\n  function addBet(string temperature, uint timestamp) public payable {\n    require(block.timestamp + 1 seconds < timestamp);\n\n    if (bets[timestamp].total > 0) {\n      bets[timestamp].total += msg.value;\n      bets[timestamp].temperatures[msg.sender] = temperature;\n      bool isPresent = false;\n      for (uint i = 0; i < bets[timestamp].addresses.length; i++) {\n        if (bets[timestamp].addresses[i] == msg.sender) {\n          isPresent = true;\n          break;\n        }\n      }\n      if (!isPresent) bets[timestamp].addresses.push(msg.sender);\n    } else {\n      bets[timestamp] = Bet({\n        total : msg.value,\n        addresses : new address[](0)\n        });\n      bets[timestamp].temperatures[msg.sender] = temperature;\n      bets[timestamp].addresses.push(msg.sender);\n\n      var url = \"json(https://www.metaweather.com/api/location/834463).consolidated_weather.0.the_temp\";\n      bytes32 queryId = oraclize_query(timestamp, \"URL\", url);\n      queryIds[queryId] = timestamp;\n      LogNewBet(queryId);\n    }\n  }\n}\n",
  "sourcePath": "/Users/melnikaite/projects/school_weather/contracts/Bets.sol",
  "compiler": {
    "name": "solc",
    "version": "0.4.19+commit.c4cbbb05.Emscripten.clang"
  },
  "schemaVersion": "2.0.0",
  "updatedAt": "2018-03-26T16:09:36.992Z"
}